:020000040020DA
:10000000F8940220B104200047F2220009DB22000C
:1000100045F22200CD382000251123000000000009
:100020000000000000000000000000004D03200060
:10003000C504200000000000050420006904200021
:10004000CB042000CB042000CB042000CB042000F4
:10005000CB042000CB0420006BB0200087B0200030
:100060008DB0200093B0200099B02000CB04200078
:10007000CB042000CB042000CB042000CB042000C4
:10008000CB042000CB042000CB042000CB042000B4
:10009000CB042000CB042000CB0420009FB0200024
:1000A000CB042000CB042000CB042000CB04200094
:1000B000CB042000CB042000CB04200017DB22005F
:1000C0000BDB2200CB042000CB042000CB0420005B
:1000D000CB042000CB042000CB042000CB04200064
:1000E00071B02000CB042000CB042000CB04200002
:1000F000CB042000CB042000CB042000CB04200044
:10010000CB042000CB042000CB042000CB04200033
:10011000CB042000CB042000CB042000CB04200023
:10012000C1AB2000CB042000CB042000CB04200076
:10013000CB042000CB042000CB042000CB04200003
:10014000CB042000CB042000CB042000CB042000F3
:10015000CB042000CB042000CB042000CB042000E3
:10016000CB042000CB042000CB042000CB042000D3
:10017000CB042000CB042000CB04200000000000B2
:10018000CB042000CB042000CB042000CB042000B3
:10019000CB042000CB042000CB042000CB042000A3
:1001A00085EA2200CB042000F1AA2000CB04200025
:1001B000CB042000CB042000CB042000CB04200083
:1001C000CB042000CB04200000F002F800F07BF804
:1001D0000AA090E8000C82448344AAF10107DA45A2
:1001E00001D100F070F8AFF2090EBAE80F0013F079
:1001F000010F18BFFB1A43F00103184734830500B1
:10020000548305000A444FF0000C10F8013B13F032
:10021000070408BF10F8014B1D1108BF10F8015B5F
:10022000641E05D010F8016B641E01F8016BF9D152
:1002300013F0080F1EBF10F8014BAD1C0C1B09D1A9
:100240006D1E58BF01F801CBFAD505E014F8016B1B
:1002500001F8016B6D1EF9D59142D6D370470000AD
:100260000023002400250026103A28BF78C1FBD8BF
:10027000520728BF30C148BF0B607047662904F0A1
:100280009EA6642900F03082782900F069827329E3
:1002900001F0D180002070471FB544F004FE9DE8B6
:1002A000030000F015FD00F060FB01F033F90400DD
:1002B0000020002143F0FCFFE0601FBD10B50020CE
:1002C00001F0BDF810BD01F000F91146FFF7E4FFA1
:1002D0003EF0E2FD01F01AFA03B4FFF7EFFF03BCB2
:1002E00000F0D0FC80F309887047EFF30980704775
:1002F000684680F3098804480078C00714BF0220CC
:10030000032080F31488704708010020DFF818C02C
:10031000EFF305831B0618BF6047EFF31483DB0779
:1003200008BF604700DF704761252400DFF818C070
:10033000EFF305831B0618BF6047EFF31483DB0759
:1003400008BF604700DF7047D9252400EFF309801C
:10035000816911F8021CE1BB90E80F1010B5E0476D
:10036000BDE81040EFF3098C8CE80700214B93E8BF
:100370000600914208BF704741B91EF0100F16D118
:100380001D49086820F00100086010E01EF0100F01
:1003900006BF2CED108A0120002081F838002CE9DE
:1003A000F00FC1F83CC00CB443F044FC0CBC1A6024
:1003B000D2F83CC0BCE8F00F92F8380000280EBF1D
:1003C0006FF0020E6FF0120EBCEC108A8CF30988ED
:1003D000704710B5094A1268914209D8084C54F880
:1003E000214090E80F10A047EFF3098C8CE80F0034
:1003F00010BD00005C00002034EF00E0B4062400D3
:10040000B406240010B543F00FFBBDE81040154BB7
:1004100093E80600914208BF7047EFF3098C1EF085
:10042000100F06BF2CED108A0120002081F8380043
:100430002CE9F00FC1F83CC00CB443F0FBFB0CBC42
:100440001A60D2F83CC0BCE8F00F92F838000028DF
:100450000EBF6FF0020E6FF0120EBCEC108A8CF320
:10046000098870475C00002010B543F007FCCCE71A
:1004700010B541F0E3F843F001FCC6E70B49D1F8B1
:1004800000C04A685CF8043B1068184442F8040B4A
:100490008C4528BFA1F1DC0C8A4228BFA1F1DC0207
:1004A000C1F800C04A6020F00040704720080020DA
:1004B0000948804709480047FEE7FEE7FEE7FEE7F8
:1004C000FEE7FEE7FEE7FEE7FEE7FEE70448054934
:1004D000054A064B7047000087072300C90120002A
:1004E000F8140020F8940220F8140220F8140220D6
:1004F00000487047E406002070B5A0FB0140B4F14D
:10050000805170F1000024BF002070BD204600F033
:100510000EFC05001CBF214600F028FB284670BDDC
:1005200070B50446051F00F0B3FB0068002C14BF33
:10053000446870BD002C18BFAC423CBF20466468C4
:10054000F8D301680A18AA4218BF456003D12A6887
:1005500005461144016028684119A1421CBF6C6026
:1005600070BD6168696021680844286070BD53EA05
:10057000020C00F069802DE9F04B4FF00006002BD3
:100580001FBFB3FA83F503FA05F424FA05F65E40BB
:1005900012BF1643B2FA82F502FA05F4C5F120053E
:1005A0001EBF22FA05FC44EA0C04203556EA044C2E
:1005B0004FEA144418BF641C4FF000084FF00009C4
:1005C000904271EB030C39D3002919BFB1FA81F7BE
:1005D00001FA07F6B0FA80F700FA07F6C7F120072C
:1005E0001EBF20FA07FC46EA0C062037B6FBF4FCD7
:1005F000A7EB0507103F07F01F0BCBF120062CFAE5
:1006000006F60CFA0BFB44BFB3460026202FA4BF0E
:100610005E464FF0000B5BEA060C08BF4FF0010B83
:1006200019EB0B0948EB0608ABFB027C06FB02CC7E
:100630000BFB03CCC01B71EB0C01C1E70B46024660
:1006400041464846BDE8F08B13B5084318BF4FF04C
:10065000FF300146AFF30080BDE81C40704700004A
:100660000FB47CB50C0009AA009001D02044401EB4
:10067000084B7B4469460190089800F01AFC054637
:100680001CB10020694600F027FC28467CBC5DF8C0
:1006900014FB00006D08000070B504468569006811
:1006A000C10601D5302600E02026C00707D070BD66
:1006B000D4E9012130469047206A401C20626D1E1B
:1006C000F6D570BD70B5044685690078C00707D1BE
:1006D00070BDD4E9012120209047206A401C20628F
:1006E0006D1EF6D570BD00002DE9F04106460024D0
:1006F00010687529314616A510D0AFF30080002888
:1007000002DA404213A507E031688A0701D512A535
:1007100002E0490704D511A5012401E0AFF30080F0
:1007200000210A2206F1240709E0B0FBF2FCB0FB2D
:10073000F2F302FB1C00303078541846491C0028A4
:10074000F3D123462A463046BDE8F04100F052BBC3
:10075000000000002D0000002B0000002000000021
:1007600070B504460D4621461068AFF3008021881D
:10077000090502D50F4A7A4402E00E4A7A440E3245
:10078000002104F1240305E000F00F060009965D46
:100790005E54491C0028F7D120780023000704D5B7
:1007A000702D02D009B1022311322046BDE87040FD
:1007B00000F020BBECDE04002DE9F05F8946044622
:1007C0004FF0000ADFF874B1FB44C0F820A02046C7
:1007D000E1688847002874D0252806D0D4E9012193
:1007E0009047206A401C2062F1E700265F462046C1
:1007F000E16888472028054607DB312D05D27819A6
:1008000010F8200C08B10643F1E7B00701D526F037
:100810000406C4F81CA00027C4F818A02A2D09D08B
:10082000284640F003F838B304EB8708303DC8F899
:10083000185019E059F8041B204604EB8702916117
:10084000E1688847012F054618D1E069002820DAC1
:1008500026F020061DE0D8F8180000EB800005EB1C
:1008600040003038C8F818002046E168884705463F
:100870003FF0DCFF0028EED1012F0AD02E2D08D149
:100880002046E16888477F1C0546022F46F0200677
:10089000C4DBA069002803DA404246F00106A061EB
:1008A000F00701D026F010066C2D0BD0682D09D072
:1008B0004C2D39D06A2D35D0742D35D07A2D33D0CA
:1008C00016E038E0E1682F4620468847B8420546E2
:1008D00009D16C2F26D04FF48060E1680643204692
:1008E0008847054604E06C2F1AD04FF48070064309
:1008F0000DB3A5F14100192802D8203546F4006651
:100900004A462946204626604E46FFF7B7FC80B18E
:1009100001280BD0F61D26F0070000F1080956E764
:100920004020E4E78020D8E70020D6E706F104095C
:100930004DE7284652E7206ABDE8F09FC2DE04007A
:100940000B4910B5A1F17C020A4CC2E937123721DC
:1009500006E000EB104342F82130074B00FB034058
:100960000B1EA1F10101F4DC10BD0120E8E700003D
:10097000C0070020E119D666CD0D010010B500209A
:1009800000F0CEFAFFF79AFCBDE81040012000F01D
:1009900079B90B460146184600F0ABBA10B5431CB6
:1009A00002E010F8011B71B18107FAD14FF001325A
:1009B00002C88C1A8C4314EAC211F9D0C01A0A0674
:1009C00003D0C01E10BDC01A10BD0A0401D0801E85
:1009D00010BD0902FCD0401E10BD032A40F2308039
:1009E00010F0030C00F0158011F8013BBCF1020F70
:1009F000624498BF11F801CB00F8013B38BF11F8F1
:100A0000013BA2F1040298BF00F801CB38BF00F807
:100A1000013B11F0030300F06780083AC0F0088042
:100A200051F8043B083A51F804CBA0E80810F5E768
:100A3000121D5CBF51F8043B40F8043BAFF300804B
:100A4000D20724BF11F8013B11F801CB48BF11F8C0
:100A5000012B24BF00F8013B00F801CB48BF00F890
:100A6000012B7047431A28BF9A427FF6B6AF104455
:100A70001144032A40F2268010F0030F1EBF11F824
:100A8000013D521E00F8013D10F0030F7FF4F6AF58
:100A900011F0030300F05E82083AC0F00B8051F8B9
:100AA000043D083A51F804CD40F8043D40F804CD27
:100AB000FFF7F3BF121D5CBF51F8043D40F8043D41
:100AC000AFF30080D20724BF11F8013D11F801CD2A
:100AD00048BF11F8012C24BF00F8013D00F801CDFA
:100AE00048BF00F8012C704710B5203AC0F00B80C9
:100AF000B1E81850A0E81850B1E81850A0E8185014
:100B0000203ABFF4F5AF5FEA027C24BFB1E8185089
:100B1000A0E8185044BF18C918C0BDE810405FEAEB
:100B2000827C24BF51F8043B40F8043B08BF704767
:100B3000D20728BF31F8023B48BF11F8012B28BF6C
:100B400020F8023B48BF00F8012B704702F0FF037A
:100B500043EA032242EA024200F00AB802F0FF032D
:100B600043EA032242EA024200F024B84FF00002B6
:100B70000429C0F0128010F0030C00F01B80CCF1AF
:100B8000040CBCF1020F18BF00F8012BA8BF20F81D
:100B9000022BA1EB0C0100F00DB85FEAC17C24BF71
:100BA00000F8012B00F8012B48BF00F8012B70471B
:100BB0004FF0000200B5134694469646203922BFF6
:100BC000A0E80C50A0E80C50B1F12001BFF4F7AF41
:100BD000090728BFA0E80C5048BF0CC05DF804EB23
:100BE000890028BF40F8042B08BF704748BF20F891
:100BF000022B11F0804F18BF00F8012B7047000046
:100C000030B44FF0013C50F8042BCCFA52F451F8B8
:100C1000043BD51A20D1FCB950F8042BCCFA52F47D
:100C200051F8043BD51A17D1B4B950F8042BCCFABB
:100C300052F451F8043BD51A0ED16CB950F8042B7C
:100C4000CCFA52F451F8043BD51A05D1002CDAD075
:100C500030BC4FF00000704729BAB1FA81F111F0B1
:100C60001801D1F120008440F2D1CA40CB4012F0EB
:100C7000FF0213F0FF0330BCD01A70477047704773
:100C80007047000001491820ABBEFEE726000200B5
:100C900000487047EC06002000487047E40600203A
:100CA000704770477047704738B504460A460020C1
:100CB0006946AFF30080002808BF38BD024600999E
:100CC000204600F07EF9012038BD012000F0F6BB7F
:100CD000F8B5AFF30080054600200C46102000BF99
:100CE0000646A819A0420DD9324669460020AFF346
:100CF0000080070008BF00F0E1FB0098A04218BF89
:100D00000546C419FFF7C4FF05600746F01D20F033
:100D100007004619284600F04DF9B44208BFF8BD57
:100D2000A21B31463868BDE8F84000F04AB970B5FA
:100D30000646FFF7ADFF056806F10B0020F007043B
:100D4000B4429CBF002070BD2B466A68BAB11068DF
:100D5000A04210D304F1080188423CBF506858609B
:100D600007D35168101941601168091B0160586070
:100D70001460101D70BD13465268002AE7D1214649
:100D80002846FFF791FF0028DED170BD10B5FFF7B0
:100D900083FF006810BD10B50446FFF77DFF0460B7
:100DA00010BD70B50C460546012A05D0287880068E
:100DB00000D5EA69002302E0012305E05B1C9342B1
:100DC00002D2E05C0028F9D1A869E618C01AA8612F
:100DD000286A184428622846FFF75EFC04E0D5E93B
:100DE000012114F8010B9047B442F8D32846FFF7CD
:100DF00069FC70BD2DE9F0470D46994692460446C0
:100E000000F124080168880604D5E06921F010018A
:100E1000216000E00120A84201DD471B00E000271F
:100E2000A1697A1902EB0900081AA0612078C006AE
:100E300002D42046FFF730FC002608E0D4E9012167
:100E40001AF806009047206A401C761C20624E4526
:100E5000F4DB2078C0060AD52046FFF71DFC06E02B
:100E6000D4E9012130209047206A401C2062381EBE
:100E7000A7F10107F4DC07E0D4E9012118F8050027
:100E80009047206A401C2062281EA5F10105F3DC72
:100E90002046FFF717FC2078000602D50220BDE8A7
:100EA000F0870120FBE7000001694A1C0261087815
:100EB000704700B58FB0CDE901310021059105499A
:100EC0007944CDE9031011466846FFF775FC0FB071
:100ED00000BD0000E5FFFFFF0A6802F8010B0A6091
:100EE0007047D1E900239A4202D2531C0B60107064
:100EF00070472DE9F041074615460E461020FFF7D2
:100F000016FF04000AD06760C4E9026500F04EF8DD
:100F10000168216004600020BDE8F0810120FBE74A
:100F200010B500F0B3FABDE8104000F0A9BA431ABA
:100F300028BF9A427FF6D8AD1044114410F0030F39
:100F40001EBF11F8013D521E00F8013D10F0030FC5
:100F50007FF4F6AF103AC0F00A8010B531E91850AE
:100F600020E91850103ABFF4F9AFBDE8104053071C
:100F700024BF31E9081020E9081044BF51F8043DAE
:100F800040F8043D12F0030F08BF7047D20728BF96
:100F900031F8023D48BF11F8012C28BF20F8023D6E
:100FA00048BF00F8012C70477047000000487047A8
:100FB0001C07002000210160C0E9011070471020CB
:100FC0007047034640688C46002818BF88423CBFE3
:100FD00003464068F8D318681844884207D00CF1DB
:100FE000030020F00700001D411A521A0146081D97
:100FF0000A60FFF795BA2DE9FF4F0C461E464FF0E9
:10100000FF378BB0D2E90001DDF860800A908A4694
:10101000C1F30A5505B93D46002108464FF00000CE
:10102000BAF1000F00F4400005DA00EB80004FF445
:10103000400101EA50004FEA9059B9F1010F00DD7B
:10104000B9460A9850EA4A000ED044F61050A5F26C
:10105000FF3545432F14B8F1000F1ED07542291EED
:101060001EDDC9F100021CE0B8F1010F4FF00000D5
:1010700001D0302103E0F24305E02154401CB0428E
:10108000FBDB30460022002121540B99C1F8088077
:10109000C1E900200FB0BDE8F08FBD1B6D1CDEE77D
:1010A0004A4600DA694206A800F0BEFA06AB93E8A9
:1010B000070003AB83E8070050460A993EF031FF72
:1010C0008DE80700A0F500501F3800900398002D10
:1010D0000ADD42F21F014A460844002303A9039097
:1010E00068463FF09AF909E0A0F500504A461F38DB
:1010F000002303A9039068463FF0A4F98DE8070098
:101100000004000C03D04FF0FF30410800E010460F
:10111000B8F1000F03D00022009215461EE0751EA4
:1011200005D400F0FBF9303262556D1EF9D5B34697
:101130000122084302D000227F1C04E020783028DE
:1011400001D100227F1E002A099784D01DE0112DB5
:1011500007DA00F0E3F9303262556D1C50EA010203
:10116000F5D1084302D00098C8B10EE00021681EF6
:1011700005E0235C625C63542254401E491C81429A
:10118000F7DBAB46A81B401E0990002004F80B00BB
:101190000B98099AC0F80880C0E9002B7AE711265D
:1011A0004FF0000857E72DE9F04F88460446D21D5E
:1011B00022F0070191B0D1E90001CDE90A013FF029
:1011C0007BFA02460B98C00F01D02D2007E0206863
:1011D000810701D52B2002E0202101EAC000032A6B
:1011E000099001D0072A05DB03464146204600F05E
:1011F000DBF90BE12078800601D5E06900E00620EC
:10120000B8F1650F814606D0B8F1660F18D0B8F175
:10121000670F70D131E00020B9F1110F009001DBB0
:10122000112301E009F101030AAA01A90CA8FFF7A3
:10123000E2FEDDE90C70002609F10105834647E076
:1012400001204B4600904FF000470AAA01A90CA8C4
:10125000FFF7D1FEDDE90DB00C995D46002610B90F
:1012600009F101000D18B9EB050003D4C0F1FF36F8
:1012700009F10105A5EB09002BE0B9F1010F01DA35
:101280004FF001090020B9F1110F0090484601DD2F
:10129000112300E003460AAA01A90CA8FFF7ABFE40
:1012A000DDE90C704D4600268346207800070AD4FD
:1012B000AB4500DA5D4601A8012D04DD411911F8A6
:1012C000011C302907D04F4502DA17F1040F04DA68
:1012D000012082460FE06D1EEEE7002F02DCED1BC1
:1012E0003E4403E0781CA84200DD7D1CB81B00F1E1
:1012F000010A4FF000472078000703D4AA4501DB1C
:101300004FF0FF3A0021B7F1004F0DF143088DF87F
:10131000431024D002202B23002F01DA7F422D23FB
:101320000A21021EA0F1010000DC5FB197FBF1FC75
:1013300097FBF1F201FB1C7C17460CF1300C08F80E
:1013400001CDEEE7A8F1010003702188090501D560
:10135000452100E06521A0F1010800F8011C099871
:101360000FA9A1EB0807FF1D00B10120411901EBF6
:10137000EA70A1693844081A401EA0612078C006AE
:1013800002D42046FFF788F9099828B1D4E9012151
:101390009047206A401C20622078C00622D5204653
:1013A000FFF77AF91EE0002E04DBB34502DD01A849
:1013B000805D00E03020D4E901219047206A401C84
:1013C0002062761CAAF101005FEA000A0AD100F04F
:1013D000A1F8C0680168405CD4E901219047206A07
:1013E000401C2062281EA5F10105DCDC07E0D4E9E1
:1013F000012118F8010B9047206A401C2062381E1A
:10140000A7F10107F3DC2046FFF75CF9032011B0D8
:1014100041E610B5436913B1AFF3008001E0FFF777
:10142000C0FC012010BD127800F124010A700022D6
:101430004A700122EDE711684FF0FF32E9E72DE92C
:10144000F0410646FFF7B2FD8046454613E016B16F
:10145000E068B0420ED120682860D4E90101D8F8D4
:10146000007088472046FFF75BF8D8F80000B842C4
:10147000EBD100E025462C68002CE8D1BDE8F081D6
:10148000002801D0FFF7FEBB7047000010B5002117
:1014900002A000F044F9012010BD0000534947416B
:1014A0004252543A2041626E6F726D616C207465D5
:1014B000726D696E6174696F6E00000010B500F0A6
:1014C00047F9BDE81040FFF7DBBF7546FFF710F89E
:1014D000AE4605006946534620F00700854618B021
:1014E00020B5FEF7F3FFBDE820404FF000064FF0B7
:1014F00000074FF000084FF0000BAC46ACE8C00905
:10150000ACE8C009ACE8C009ACE8C00921F00701AB
:101510008D467047004870470407002030B5B0F191
:101520000A0271F100034FEA900E4EEA817EB0EBA1
:101530000E0061EB91014FEA101E4EEA017E10EBA6
:101540000E0041EB11114FEA102E4EEA016E10EB26
:101550000E0041EB11214FEA104E4EEA014E10EB06
:101560000E0041EB1141401841F100014FEAD0005B
:1015700040EA41704FEAD1014FEA810444EA907495
:1015800010EB800544EB01046D1944EB0404521B7D
:10159000A3414FF0000348BF0A3200D530BD401CC4
:1015A00041F1000130BD00002DE9F0411F46044625
:1015B00003260168072A01F4006004DB08B116A5C0
:1015C00005E016A503E008B115A500E015A521F07A
:1015D00010002060A069C01EA0610FB1401EA06174
:1015E0002046FFF759F84FB1D4E90121384690471A
:1015F000206A401C2062C01C206206E0206AFAE7D4
:10160000D4E9012115F8010B9047761EF8D2204647
:10161000FFF758F8BDE8F0814E414E006E616E0054
:10162000494E4600696E66002DE9F0478146164630
:101630008AB0354878440DC88DE80D0032487844AA
:10164000801C03AC0DC884E80D0041F69B300844B3
:10165000372190FBF1F290FBF1F5A5F1800501FB3C
:1016600012041B3C02D56442012000E00020DFF898
:1016700098A080460027FA44AAF1BE0A0EE0E007CF
:101680000AD03246684607EB470101230AEB810185
:101690003EF0D8FE8DE8070064107F1C002CEED1D0
:1016A000194F7F44AE3F19E0E80715D007EB04104F
:1016B0000DF1180A90E80E008AE80E00C068F042AA
:1016C00001D1981908903246012306A903A83EF0DB
:1016D000B9FE03AB83E807006D10641C002DE3D155
:1016E0004FF0010332466946B8F1000F03A802D05B
:1016F0003EF093FE01E03EF0A5FEC9E90001C9F805
:1017000008200AB0BDE8F087E4D0040010B5044614
:10171000AFF300802046BDE81040FEF7DDBD70B598
:1017200005460C460A2000E06D1C00F039F835B182
:1017300028780028F8D102E0641C00F031F814B1D8
:1017400020780028F8D1BDE870400A2000F028B8C1
:1017500010B5012805D0002103A0FFF7E0FF01200C
:1017600010BD09A1F8E7000053494752544D454DBB
:101770003A204F7574206F662068656170206D6532
:101780006D6F7279000000003A2048656170206D2D
:10179000656D6F727920636F727275707465640025
:1017A00008B569468DF800000320ABBE08BD0146B0
:1017B000806B026C12F0500F026C05D0D2060DD473
:1017C000806BC26C0846104742F4007101640168E6
:1017D0008A6812F0405F03D028F04BBD28F04BBD63
:1017E0008269002AF8D1CA6A12F4700F02D08A689E
:1017F0005205F1D44A6822F020024A60016C21F4BB
:1018000080710164016CC904E6D4016C41F00101EE
:10181000016428F02EBD806B40210164416C41F0D1
:101820000401416428F027BD806B28F023BD00002F
:101830002DE9F04104460068984615460E462746B5
:1018400070B3274602E000BF386848B38168A942F8
:1018500002D14168B1421AD0076807B3B968A942FA
:1018600002D17968B1420FD03868C8B18168A94205
:1018700002D14168B1420AD0076887B1B968A9426C
:10188000E2D17968B142DFD1014638460F4601699D
:1018900000294FF0000158D00846BDE8F081074606
:1018A000142009F061FFA0B904E000BF142009F082
:1018B0005BFF68B9042019F0A7FD0028F6D10420C9
:1018C00015F0B6F81BF0B0FC00210846BDE8F08129
:1018D0002746002140F694230161C2F20003016013
:1018E00040F698224660C2F2000219681668143168
:1018F0008560B142196000DD116040F6DC2240F6DF
:10190000A023C2F20002C2F2000312681B680A445C
:1019100040F68021C2F200011A440B689A4201DDB0
:101920000A6000BF396849B10F6837B1396829B119
:101930000F68002FF6D10F4600E00F4601213860F6
:10194000C0F80C800846BDE8F08102683A6001608A
:10195000E8E700000000000010B501280EDB0C21B4
:1019600001EB4004204609F0FFFE48B9032019F0BE
:101970004BFD0028F6D1032015F05AF8002010BDC9
:1019800040F6AC4140F69023C2F20001C2F20003DF
:101990000A6840F6DC2C0260C2F2000C1A6808608B
:1019A000511CDCF80020196040F6E023C2F200036D
:1019B00011191A6844609142CCF8001000DD1960DA
:1019C00040F6942240F6A023C2F20002C2F20003C5
:1019D00012681B680A4440F68021C2F200011A44D2
:1019E0000B689A4200DD0A6044F2776101810A3097
:1019F00010BD10B5D0F820440021204640F8101B3F
:101A000000F0E2FE41F2B410204400F03FFA41F64B
:101A10008810204400F03AFA42F25C102044BDE8FD
:101A2000104000F033BA00002DE9F04F81B02DEDE9
:101A3000028B82B0D0F82064044641F2142006F1F3
:101A400010083044019046F2D41B00224046214643
:101A5000C0F2250BC6F80CB000F015FF41F2B4102F
:101A6000002206EB00092146484600F056FA41F6EE
:101A70008810002237182146384600F04EFA42F20C
:101A80005C10002206EB000A2146504600F045FAA1
:101A9000002100224FF4F0732046C6F800B04FF446
:101AA0008875009506F0DCF90021CC224FF4F07324
:101AB00040460095CC2506F0D3F9002100224FF4D2
:101AC000F07344200090484606F0CAF94FF6F971C9
:101AD0004846CFF60A7100F010F941F63470C0F2B2
:101AE00025001AF0BDFD0146484600F03CF99FED87
:101AF000388A4846B0EE480A00F073F900214422C3
:101B00004FF4F07388200090384606F0A9F94FF69C
:101B100040713846CFF60A7100F0EFF841F63C709C
:101B2000C0F225001AF09CFD0146384600F01BF972
:101B30002221384600F02DF99FED260A384600F0A4
:101B400069F9B0EE480A384600F04BF900218822C6
:101B50004FF4F0735046009506F082F94FF60A7183
:101B60005046CFF6F57100F0C8F841F64470C0F267
:101B700025001AF075FD0146504600F0F4F8B7EE66
:101B8000000A504600F02DF900222046414602F09E
:101B90007BFD00222046494602F076FD00222046C9
:101BA000394602F071FD00222046514602F06CFDDC
:101BB00041F21420002131500198C0F8D417C0F828
:101BC000A81F02B0BDEC028B01B0BDE8F08F00BFD2
:101BD00000004842000048C210B5D0F8204404F18B
:101BE000100001F0A8F941F2B410204400F01DFCEF
:101BF00041F68810204400F018FC42F25C102044AA
:101C0000BDE8104000F011BC10B5044610F03CFBDC
:101C100046F6EC10C0F2250020602046BDE81040DA
:101C200007F0D6BE70B582B014460D46064607F0E2
:101C300001FF46F250100021C0F22500F060306034
:101C400000224FF4F0734FF488700090304606F095
:101C500007F930462946224602B0BDE870400AF036
:101C600007B810B5044607F03AFFD4F8200428B1AD
:101C70000068016B2046BDE81040084710BDB0B5B4
:101C800088B00546D0F85C06D5F86416411A05F50B
:101C9000B86001F051FED5F8143606A8D5E94B120C
:101CA00005F1640422F000F9DDE90612204602F095
:101CB00083F9D5F8683604A8D5E94B1222F0F8F874
:101CC000DDE90412204602F077F9D5E94D1202A8A9
:101CD000012322F0E9F8DDE90212204602F045FA7C
:101CE000D5E94D126846012322F0E2F8DDE9001241
:101CF000204602F03AFA08B0B0BDB0B50546D0F8BB
:101D0000AC070C460DF01CFB60B305F59060214656
:101D1000C5F8AC47C5F8B04731F077FD05F57B70E5
:101D2000214631F072FD05F55670214631F06DFD0A
:101D300005F53170214631F068FD05F50C7021463E
:101D400031F063FD05F5CE70214631F05EFD64355E
:101D50002146284602F066F928462146BDE8B040F3
:101D600002F0C8B9B0BDB0B50546D0F8A8070C461A
:101D70000DF012FB60B1204622F06AF905F5CE7134
:101D8000C5F8A80708462146BDE8B04031F0B9BD06
:101D9000B0BD70B584B00646D0F8BC0788421ED0EE
:101DA0000D46C6F8BC17D6F86416D6F8682602A801
:101DB0002B4606F5C66422F07BF8DDE902122046C8
:101DC00004F097FDD6F85C16D6F8602668462B46D8
:101DD00022F06EF8DDE90012204604F0EEFD04B0BA
:101DE00070BD10B500F2C47191ED001AB4EE401A46
:101DF000F1EE10FA08BF10BD81ED000A00F5D064C5
:101E0000002002211BF08CF801462046BDE810405E
:101E100031F077BD10B500F5F86191ED001AB4EE20
:101E2000401AF1EE10FA08BF10BD81ED000A00F271
:101E30001474002002211BF073F801462046BDE80F
:101E4000104031F05EBD03F015BEB0B584B005465C
:101E500003F011FED5F8143602A8D5E94B1205F1AE
:101E6000640422F021F8DDE90212204602F0A4F811
:101E7000D5F868366846D5E94B1222F019F8DDE945
:101E80000012204602F098F804B0B0BD10B546F23A
:101E90003C610446C0F2250140F8641B02F089F958
:101EA00004F5A87030F014FF04F5CE7031F074FD25
:101EB00004F50C7031F070FD04F5317031F06CFDFB
:101EC00004F5567031F068FD04F57B7031F064FD67
:101ED00004F5906031F060FD04F2145030F093FB93
:101EE00004F2945008F0A2FC04F5B86001F029FD5A
:101EF00004F5BC6030F0F7FD04F5C66030F0F3FD8A
:101F000004F5D06031F048FD04F2147031F044FD66
:101F10002046BDE8104003F0AFBD2DE9F04F81B081
:101F20002DED028B92B0044603F0ADFD46F2102673
:101F300004F1640000222146C0F22506E660054651
:101F400002F046F904F5A870002221460A9030F00C
:101F5000C6FE04F5CE7B00225846214631F02EFD08
:101F600004F50C7800224046214631F027FD04F5A7
:101F7000317000222146089031F020FD04F556779B
:101F800000223846214631F019FD04F57B7000220D
:101F900021460F9031F012FD04F590690022484669
:101FA000214631F00BFD04F2145000222146059029
:101FB00030F030FB04F2945A00225046214608F0DB
:101FC00047FC04F5B860002221460B9001F0C0FCEC
:101FD00004F5BC60002221460C9030F08BFD04F526
:101FE000C660002221460D9030F084FD04F5D060DB
:101FF000002221460E9031F0E1FC04F21470002220
:102000002146069031F0DAFC002100224FF4F073F3
:10201000204626604426009605F022FF1721284618
:10202000049508F0EEFC002100224FF4CE73284600
:10203000009605F015FF0121284603F046FDB0EE9D
:10204000088A2846B0EE480A02F070F84FF0FF31D7
:10205000284601F0E7FFB0EE480A284601F0FEFFEF
:1020600005210522284602F080F80A210A22284686
:1020700002F01CF80A9D1721284608F0C2FC4FF414
:10208000CD7100224FF4EF732846009605F0E8FE6C
:1020900040F204412846CFF6047130F0EFFD1721DD
:1020A0005846CDF80CB008F0ACFC4FF4CD710022CE
:1020B0004FF4F07314200090584605F0D1FE41F61D
:1020C000AC60C0F225001AF0CBFA0146584631F058
:1020D00018FC17214046CDF8088008F092FC4FF418
:1020E000CD7114224FF4EF7328200090404605F084
:1020F000B7FE41F6C460C0F225001AF0B1FA0146FD
:10210000404631F0FEFB089D1721284608F079FC77
:102110004FF4CD712A224FF4DE7328463426009600
:1021200005F09EFE41F6DC60C0F225001AF098FA38
:102130000146284631F0E5FB17213846079708F09D
:1021400060FC4FF4CD7136224FF4DE7338464FF009
:10215000400BCDF800B005F083FE1321384631F076
:1021600075FA41F6F460C0F225001AF079FA0146DA
:10217000384631F0C6FB0F9D1721284608F041FC78
:102180004FF4DE712A224FF4EF732846009605F0D3
:1021900067FE41F60C78C0F2250840461AF060FA56
:1021A0000146284631F0ADFB17214846CDF8249072
:1021B00008F027FC4FF4DE7136224FF4EF734846E7
:1021C000CDF800B005F04CFE40461AF049FA014641
:1021D000484631F096FB4FF0FF30C4F8AC0741F6AB
:1021E000AC60C0F225001AF03BFA21F031FFC4F8D0
:1021F000A8074FF60070059DCFF60670C4F8B0072B
:10220000B22064218222942300902846642705F09E
:1022100027FE6421504608F0E9FA0021504608F0F4
:10222000CFFA4FF47A710B9801F086FB44F200006C
:102230000C9ECCF21C60C4F8B4070A213A22304646
:1022400004F0BBFB0A210A22304604F052FB0121B4
:10225000304630F0D9FB0D9E4FF4CE713A22304615
:1022600004F0ABFB0A213A22304604F042FB012184
:10227000304630F0C9FB0E9E082100222123192090
:102280000090304605F0ECFD41F62470C0F22500C8
:102290001AF0E6F90146304631F033FBDDF81880DC
:1022A000012138221A2347200090404605F0D8FD2E
:1022B00041F62C70C0F225001AF0D2F901464046D2
:1022C00031F01FFBDDF81090002220464946C4F88B
:1022D000D07702F0D9F9002220460A9902F0D4F909
:1022E000DDF80CB000222046594602F0CDF9DDF8A9
:1022F00008A000222046514602F0C6F9089F00229D
:102300002046394602F0C0F900222046079902F023
:10231000BBF9002220460F9902F0B6F900222046B0
:10232000099902F0B1F900222046294602F0ACF9E1
:10233000002220460C9902F0A7F9002220460D99B0
:1023400002F0A2F900222046314602F09DF9002257
:102350002046414602F098F948460B9901F04AFEA2
:1023600046F634654FF2B030C0F22505C0F22400C5
:1023700029461AF07DF80146584631F0A8FA4FF286
:10238000C8302946C0F224001AF072F801465046BF
:1023900031F09DFA4EF270762946C0F2240630469E
:1023A0001AF066F80146384631F091FA304629466F
:1023B0001AF05EF80146079831F089FA304629464E
:1023C0001AF056F801460F9831F081FA3046294646
:1023D0001AF04EF80146099831F079FA42F2DD52CE
:1023E00010A8C0F2200221461AF062FD1098C4F82D
:1023F000A4051198C4F8A805304629461AF038F803
:1024000001460E9831F063FA304629461AF030F84A
:102410000146404631F05BFA2046FFF730FC12B02F
:10242000BDEC028B01B0BDE8F08F10B5044603F09F
:1024300055FB04F1640001F02EFF04F5A87030F0A4
:102440005FFC04F5CE7031F0D3FA04F50C7031F076
:10245000CFFA04F5317031F0CBFA04F5567031F053
:10246000C7FA04F57B7031F0C3FA04F5906031F0DF
:10247000BFFA04F2145030F0E9F804F2945008F076
:10248000F5F904F5B86001F070FA04F5BC6030F0BD
:1024900043FB04F5C66030F03FFB04F5D06031F03B
:1024A000A7FA04F21470BDE8104031F0A1BAF0B5FB
:1024B00081B02DED0A8B00F2B477B0EE408A04466D
:1024C00097ED001AB4EE401AF1EE10FA0DDAB0EE04
:1024D000480A0020012187ED008A04F590651AF072
:1024E0001FFD0146284631F00CFAD4F8C807A8B100
:1024F00001EE100A97ED010A30EE080A002087ED80
:10250000010A0121B8EEC11A04F57B7580EE010ABB
:102510001AF006FD0146284631F0F3F9D4F85C06BE
:1025200004F16405D4F8641604F50C76D4F834216B
:10253000401A04F5CC6190FBF2F000EE100A04F5AD
:10254000C360B8EEC09A91ED000AB8EEC0AA90ED53
:10255000000AB8EEC0BAB0EE480A0220022197ED98
:1025600004CA1AF0DDFC0146304631F0CAF93BEEF0
:102570004A0A04F5F96004F5B86680EE0C1A90ED8D
:10258000000AB8EEC00A304661EE080A01F09FF971
:102590002846314601F02EFDD4F8C80700EE100A97
:1025A000B8EEC00AB4EE490AF1EE10FA0ADB304682
:1025B0000025C4F8C857C4F8CC5701F0B8F9D4F8CE
:1025C000C8077D600130C4F8C8072046BDEC0A8BFF
:1025D00001B0BDE8F04002F090BD000010B5044627
:1025E000006EA8B19FED0B0A2046FFF760FFD4F8FC
:1025F000CC07D4F8D017084441F2BA618842C8BF6A
:102600000020C4F8CC072046BDE8104002F075BD9C
:1026100010BD00BF00000000006E00210160704787
:10262000B0B582B00446006E46F2183104F28C65F3
:10263000C0F22501C160016041F69470C0F225002E
:102640001AF00EF80146284632F036FB04F56660B3
:10265000002100224FF4F0734425009505F000FCA2
:1026600002B0B0BD704741F29C11084490ED000AE1
:10267000704741F29811084490ED000A704741F20A
:102680009411084490ED000A70474FF48D51405862
:10269000704741F29C11084480ED000A704741F2F6
:1026A0009811084480ED000A704741F294110844E3
:1026B00080ED000A70474FF48D528150704780B50D
:1026C00084B041F29C120146104490ED001AB4EE21
:1026D000401AF1EE10FA11D042F2676242F29363AF
:1026E00080ED000AC0F22002C0F2200301A81AF017
:1026F000DBFB01AA002307CA1AF05EFD04B080BD0F
:1027000003F0B8B980B584B041F298120146104484
:1027100090ED001AB4EE401AF1EE10FA11D042F228
:10272000736242F29F6380ED000AC0F22002C0F2A1
:10273000200301A81AF0B8FB01AA002307CA1AF067
:102740003BFD04B080BD80B584B041F294120146D7
:10275000104490ED001AB4EE401AF1EE10FA11D0C8
:1027600042F27F6242F2AB6380ED000AC0F22002C7
:10277000C0F2200301A81AF097FB01AA002307CAA0
:102780001AF01AFD04B080BD80B584B04FF48D52AC
:1027900084468058884213D00CF58D5042F28B62EB
:1027A00042F2B763C0F220020160C0F2200301A828
:1027B00061461AF079FB01AA002307CA1AF0FCFC53
:1027C00004B080BD03F057B9B0B504460FF05CFD0E
:1027D000254646F23C60C0F2250045F8B00B04F1F6
:1027E000640030F075FA284632F021FD04F52970B6
:1027F00032F01DFD04F5936032F019FD04F28C6097
:1028000032F015FD04F508602EF0C1FD04F50D60F1
:1028100030F069F904F5126031F0BEF804F6B41036
:1028200031F0BAF804F6482031F0B6F804F6DC20AE
:1028300031F0B2F804F5376004F0D0FA04F69830BD
:1028400004F0CCFA04F53C6004F0C8FA04F6E83071
:1028500004F0C4FA04F5416031F09EF804F6A44097
:1028600031F09AF804F6385031F096F804F6CC506E
:1028700031F092F804F5666000F052FC2046BDE8A5
:10288000B04003F0F9B82DE9F04FA7B0CDE90D1233
:10289000064603F0F8F846F2942B06F16400002295
:1028A0003146C0F2250BC6F80CB0044630F017FADA
:1028B00006F1B00000223146119032F0D0FC06F54E
:1028C000297500222846314632F0C9FC06F5936985
:1028D00000224846314632F0C2FC06F28C680022E3
:1028E0004046314632F0BBFC06F5086A00225046ED
:1028F00031462EF053FD06F50D60002231460F9053
:1029000030F0F8F806F5126000223146159031F0EB
:1029100055F806F6B41000223146149031F04EF806
:1029200006F6482000223146139031F047F806F6AB
:10293000DC2000223146129031F040F806F5376075
:1029400000223146099004F050FA06F69830002231
:1029500031460A9004F049FA06F53C6000223146FF
:102960000B9004F042FA06F6E830002231460C9053
:1029700004F03BFA06F5416000223146179031F031
:102980001DF806F6A44000223146169031F016F8E4
:1029900006F6385000223146109031F00FF806F656
:1029A000CC5000223146069031F008F806F56660FA
:1029B00000223146089000F0CBFBC6F800B00021A1
:1029C00000224FF4F07344200090204644270794DF
:1029D00005F046FA4FF05E41204630F04FF90021F5
:1029E00000224FF4F0733046009705F039FA119F3A
:1029F00000210022502338462224009405F030FAAA
:102A000041F64C70C0F2250019F02AFE0146384606
:102A100032F052F950210022A02328460094059557
:102A200005F01EFA41F65470C0F2250019F018FEA8
:102A30000146284632F040F9002122225023484620
:102A400044240094CDF8109005F00AFA41F65C7029
:102A5000C0F2250019F004FE0146484632F02CF978
:102A600050212222A023404600944424CDF80C801B
:102A700005F0F6F941F66470C0F2250019F0F0FD9A
:102A80000146404632F018F9A02100224FF4F073BD
:102A9000504600944FF04409CDF808A005F0E0F945
:102AA000022150462EF056FC4FF6FA215046CFF642
:102AB000FA712EF025FC0F9D4FF4F0711422284678
:102AC000142403F07AFFA0211422284603F011FFFA
:102AD000022128462FF098FF4FF0FF3128462FF0B3
:102AE00070FF159D9A210022F4232846009405F0DA
:102AF000B7F941F66C70C0F2250019F0B1FD01463E
:102B0000284630F0FEFE4CF6CD582846CFF6CD785C
:102B1000414630F07AFE149DEC2100224FF4A3735D
:102B20002846009405F09CF941F67470C0F2250027
:102B300019F096FD0146284630F0E3FE284641464E
:102B400030F063FE139D40F23B11002240F29513DA
:102B50002846009405F084F941F67C70C0F2250007
:102B600019F07EFD0146284630F0CBFE284641464E
:102B700030F04BFE0094129C40F28B11002240F288
:102B8000E513204605F06CF941F68470C0F225008B
:102B900019F066FD0146204630F0B3FE204641465E
:102BA00030F033FE179D97211722F62328463F2445
:102BB000009405F055F941F6247BC0F2250B5846E8
:102BC00019F04EFD0146284630F09BFE284641464E
:102BD00030F01BFE169DE92117224FF4A4732846FE
:102BE000009405F03DF9584619F03AFD0146284693
:102BF00030F087FE2846414630F007FE109F4FF424
:102C00009D71172240F299133846009405F028F977
:102C1000584619F025FD0146384630F072FE384618
:102C2000414630F0F2FDDDF818B040F2891117226C
:102C300040F2E7135846009405F012F941F68C7003
:102C4000C0F2250019F00CFD0146584630F059FE3F
:102C50005846414630F0D9FD089C002100224FF42F
:102C6000F0732046CDF8009005F0FAF801212046D7
:102C700002F057FB0021204602F0B6FB002230464E
:102C8000079901F001FD119D00223046294601F00F
:102C9000FBFCDDF8148000223046414601F0F4FCD4
:102CA000DDF810A000223046514601F0EDFCDDF8C1
:102CB0000C9000223046494601F0E6FC00223046E6
:102CC000029901F0E1FC002230460F9901F0DCFC92
:102CD00000223046159901F0D7FC002230461499A5
:102CE00001F0D2FC00223046139901F0CDFC002205
:102CF0003046129901F0C8FC00223046179901F0C5
:102D0000C3FC00223046169901F0BEFC002230467A
:102D1000394601F0B9FC00223046594601F0B4FCB6
:102D200000223046214601F0AFFC43F25D0224A8A8
:102D3000C0F2200231461AF0BBF841F6585747F26C
:102D40004814C0F22507C0F225042498C6F84401AF
:102D50002598C6F848013846214618F02DF8014656
:102D6000284631F004FF3846214618F025F8014680
:102D7000404631F0FCFE3846214618F01DF8014669
:102D8000504631F0F4FE3846214618F015F8014659
:102D9000484631F0ECFE4FF2B03446F63467C0F2EC
:102DA0002404C0F225072046394619F061FB01468C
:102DB000159830F08CFD2046394619F059FB014634
:102DC000149830F084FD2046394619F051FB014635
:102DD000139830F07CFD2046394619F049FB014636
:102DE000129830F074FD43F2390224A8C0F2200298
:102DF00031461AF05DF842F27F6242F2AB632498EA
:102E0000C6F8800B2598C6F8840BC0F22002C0F2E9
:102E1000200321A831461AF047F821AB09980ECBC0
:102E200003F096FF43F2150224A8C0F220023146B7
:102E30001AF03EF842F2736242F29F632498C6F899
:102E4000A80B2598C6F8AC0BC0F22002C0F22003F4
:102E50001EA831461AF028F81EAB0A980ECB03F0D4
:102E600077FF42F6F17224A8C0F2200231461AF030
:102E70001FF842F2676242F293632498C6F8D00BBF
:102E80002598C6F8D40BC0F22002C0F220031BA87C
:102E900031461AF009F81BAB0B980ECB03F058FF24
:102EA00043F2930224A8C0F2200231461AF000F83F
:102EB00042F28B6242F2B7632498C6F8F80B259869
:102EC000C6F8FC0BC0F22002C0F2200318A831465D
:102ED00019F0EAFF18AB0C980ECB03F039FF4FF254
:102EE000BC343946C0F22404204619F0C1FA014628
:102EF000179830F0ECFC2046394619F0B9FA014633
:102F0000169830F0E4FC2046394619F0B1FA014633
:102F1000109830F0DCFC2046394619F0A9FA014639
:102F2000584630F0D4FC3046DDE90D1208F0A0FE22
:102F300027B0BDE8F08F10B5044602F0CFFD04F1D4
:102F400064002FF0DDFE04F1B00032F049FA04F520
:102F5000297032F045FA04F5936032F041FA04F238
:102F60008C6032F03DFA04F508602EF02AFA04F580
:102F70000D602FF0D1FD04F5126030F039FD04F63C
:102F8000B41030F035FD04F6482030F031FD04F681
:102F9000DC2030F02DFD04F5376003F034FF04F63B
:102FA000983003F030FF04F53C6003F02CFF04F68A
:102FB000E83003F028FF04F5416030F019FD04F615
:102FC000A44030F015FD04F6385030F011FD04F641
:102FD000CC5030F00DFD04F5666000F057F9206E1E
:102FE00028B10068016B2046BDE81040084710BDBD
:102FF00010B541F29C1100F638540144002091EDC7
:10300000000A022119F08CFF01462046BDE810405D
:1030100030F077BC10B541F2981100F6A444014499
:10302000002091ED000A022119F07AFF01462046A6
:10303000BDE8104030F065BC10B541F2941100F5C8
:1030400041640144002091ED000A022119F068FF5B
:1030500001462046BDE8104030F053BC80B58AB030
:103060004EF62C2200F56661C0F22402D2E9003C43
:1030700000220892CDE90022CDE90222CDE9043CEC
:10308000069300220023CDF81CC002F0B6F90AB066
:1030900080BD10B54FF48D5100F6CC540A22405833
:1030A000002119F0B5FF01462046BDE8104030F080
:1030B00028BC70B53C21044631F09EFB012120461E
:1030C00031F03AFB0021204631F07EFB0021204602
:1030D00031F04AFB4EF2647546F6F056C0F2240514
:1030E000C0F225062846314619F0C2F901462046AD
:1030F00031F0CAFA2846314619F0BAF9014620469D
:1031000031F004FB2846314619F0B2F90146204659
:10311000BDE8704031F0CEBA02F0ACBC02F0ABBCFE
:10312000B0B5054646F23C6104466030C0F2250168
:1031300045F8AC1B2FF0CCFD284630F02DFC04F5F3
:10314000A07032F074F82046BDE8B04002F094BCA4
:103150002DE9F04184B0044602F095FC04F16007CB
:1031600046F25438002238462146C0F22508C4F8F9
:103170000C802FF0B4FD04F1AC060022304621464D
:1031800030F01CFC04F5A07500222846214632F0E0
:1031900066F8C4F800800021CC224FF4F0734FF49D
:1031A00088700090204604F05BFE002100224FF45E
:1031B000F07344200090384604F052FE4FF07F41F7
:1031C00038462FF05BFD49210D2240F29D1335203A
:1031D0000090304604F044FE41F69C70C0F2250099
:1031E00019F03EFA0146304630F08BFB40F2C71131
:1031F000032240F2DB1317200090284604F030FE33
:1032000041F6A470C0F2250019F02AFA01462846BA
:1032100031F052FD00222046394601F035FA0022F5
:103220002046314601F030FA00222046294601F0BE
:103230002BFA4FF2BC3046F63461C0F22400C0F2E3
:10324000250119F015F90146304630F040FB43F2F4
:10325000B12202A8C0F22002214619F029FE0298EC
:10326000C4F8D4010398C4F8D8014EF27C7047F238
:103270004811C0F22400C0F2250117F09DFD01465F
:10328000284631F074FC04B0BDE8F08110B5044666
:1032900002F024FC04F160002FF032FD04F1AC00D8
:1032A00030F0A6FB04F5A070BDE8104032F098B8ED
:1032B00080B586B04EF62C220146C0F22402806909
:1032C0004FF0000CD2E90032CDE900C3CDE9022372
:1032D000049200220023CDF814C001F013FC06B0C4
:1032E00080BD00B1704710B586B043F6300042F2A1
:1032F0000004C4F20200C4F20204016841F48071C7
:103300000160006801A900F480700190019802201A
:1033100001900120CDE9020003200490204627F00F
:1033200019FE02210022204627F0FEFE06B0BDE86D
:103330001040704700B1704742F200000221C4F211
:103340000200002227F0F0BE00B1704742F20000F8
:103350000221C4F20200012227F0E6BE00B170474C
:1033600042F200000221C4F2020027F0D7BE80B56D
:1033700090B04FF480700890EB2002904FF44060C2
:1033800009904FF40050059000200A904FF04071D2
:103390000B910A210791CDE90D000F9002A9CDE90B
:1033A000000040F628406A46C2F2000028F0EBFE1A
:1033B000002818BF012010B080BD70B590B040F655
:1033C000284541F20000C2F20005CAF20000286060
:1033D000284628F06EFE00284FF001047CD1002121
:1033E0002846002600F08AF86C600420A8601020AF
:1033F000E860172028614FF4A060C5E9050628465B
:10340000C5E9076628F069FE002865D14FF4807091
:1034100008906620029040F6284002A9C2F20000FF
:1034200041F28832CDE909660B960796CDE90D6623
:103430000F9628F0FBFD00284DD19920029040F610
:10344000284002A9C2F2000041F2883228F0EEFDC5
:10345000002840D141F288302BF07FFFD8BB4FF4D9
:10346000807008908520029000204FF08071CDE997
:1034700009000B910121079041F28832CDE90C102F
:10348000CDE90E0040F6284002A9C2F2000028F063
:10349000CDFD00BB40F628400DF10701C2F200004F
:1034A00041F2883228F0B4FEA8B92CF04FF890B958
:1034B0009DF80710812002900A2060F31F1140F64A
:1034C00028408DF80710C2F2000002A941F28832AC
:1034D00028F0ACFD18B10424204610B070BD40F6B1
:1034E00028400DF10701C2F2000041F2883228F0B5
:1034F000F3FE002818BF01208000EEE72DE9F0411F
:1035000086B043F6300040F20045C4F20200C4F237
:10351000020501AC816841F002018160816801F01F
:1035200002010191019950F8181C41F0020140F884
:10353000181C50F8181C21F0020140F8181C0168F2
:1035400041F002010160016801F00201019101995D
:10355000016841F002010160016801F0020101917E
:103560000199016841F008010160016801F008015A
:1035700001910199016841F008010160016801F0C1
:10358000080101910199016841F010010160016891
:1035900001F0100101910199016841F008010160F9
:1035A0000068214600F00800019001984020019039
:1035B0000220029001200390032004900A2005902D
:1035C000284627F0C7FC00200390284621464FF0EC
:1035D0000408CDF804800927059727F0BBFC05F502
:1035E00000664FF40060019030462146059727F0B1
:1035F000B1FC4FF48050019030462146059727F0EA
:10360000A9FC05F540602146CDF80480059727F018
:10361000A1FC4FF40050019030462146059727F059
:1036200099FC5C200F21002228F0EBFB5C2028F0A5
:10363000D9FB06B0BDE8F081B0B540F6B44441F224
:10364000C045C2F20004C2F200050220072120603A
:1036500004226160C4E9022140F2401120616061EE
:10366000CAF20001A061002029601021C5E9010013
:10367000EA602961402169614FF48071C5E9061053
:103680004FF4006129624FF48051C5E9091000210F
:10369000284600F05EF82846214629F0ADFD40F6A8
:1036A0006C04C2F20004B0FA80F04009207040F2CD
:1036B000036000F004F8207880F00100B0BD2DE92F
:1036C000F04381B040F6041441F2C046C2F2000457
:1036D000C2F2000680464FF6FF72304621460027B0
:1036E00000974FF00109C4F800901025C4E9015972
:1036F000E76029F0B5FD012027F06AFB02204FF6B4
:10370000FF7284E8210230462146E76029F0A8FDD7
:1037100003204FF6FF72C4E9000508202146C4E9E2
:103720000207304629F09CFD4FF4087000900420F9
:10373000009984E82102E1604FF6FF72304621468D
:1037400029F08EFD3046414601B0BDE8F04329F036
:1037500074BD70B586B043F6300140F60006C4F281
:103760000201C4F2020601AD04468A680C2042F050
:1037700001028A608A6802F001020192019A0A68D5
:1037800042F480020A600A6802F480020192019AFF
:103790000A6842F004020A600A6802F00402019218
:1037A000019A0A6842F008020A600A6802F00802F8
:1037B0000192019A0A6842F010020A600A6802F057
:1037C00010020192019A0A6842F020020A600A6817
:1037D00002F020020192019A0A6842F040020A6057
:1037E0000A6802F040020192019A0A6842F08002DF
:1037F0000A60096801F0800101910199012103919A
:10380000022102910491294605900820019030463A
:1038100027F0A0FB4CF20370019006F5806029466A
:1038200027F098FB4FF68370019006F5006029465B
:1038300027F090FB4FF63F00019006F540602946C7
:1038400027F088FB48F23310019006F58050294696
:1038500027F080FB2820019006F5A050294627F08C
:1038600079FB40F670054FF40030C2F200050321E9
:10387000286200206862C5E90A1046F210412863F8
:10388000C4F20201C5E900108021A9604FF4007163
:10389000E9604FF4806129614FF4805169614FF410
:1038A0008041C5E9061028462563AC6327F098F8E7
:1038B000284627F097F938200F21002228F0A1FA96
:1038C000382028F08FFA06B070BD0000FEE710B572
:1038D0002DED048BB0EE608AB0EE409AC2690446CA
:1038E000012A0ADBA069904207D120690023013A2E
:1038F000A26101692161036107E046F2D83000212D
:10390000C0F2250019F050FA216980ED059A80ED8A
:10391000068A29B1616960610861A169481C02E0F9
:10392000C4E904000120A061BDEC048B10BD00219E
:10393000C0E90411816170470129D8BF0121C1612B
:10394000704747F2C011C0F22501016031F05CBE42
:1039500010B5044631F05CFE46F21440C0F225007A
:10396000E06020600A20E06110BD31F059BE47F2EE
:10397000C011C0F22501016031F046BE10B5044609
:1039800031F046FE46F2D830C0F22500E0602060FB
:1039900010BD31F045BE00002DE9F04F81B02DED96
:1039A000108BBCB0CDE91E23074690F8C2001290E0
:1039B000B7F8C000FA6D119097F8BA001090B7F8F8
:1039C000B8000F9097F8DA001590B7F8D800DDE945
:1039D0005A34149097F8DE0001331790B7F8DC00E2
:1039E0001C9197F8C36002FB03F597F8BB10002CFD
:1039F00097F8DB40169097F8DF2097ED2F8A97ED28
:103A0000319AD7E90BAB03D03B6AC3F3400C01E01A
:103A10004FF0000CDDE9583EB5F57F4FDDF85881D9
:103A200012DA012000EB252000FB06F500FB01F671
:103A30002D0A139500FB04F5310A50430E91290A13
:103A40001891000A199003E0CDE918420E911396DF
:103A500001A90BEB0E001B9057980AEB0309CDF858
:103A6000008081E809405A98CDF874C0CDE9040C73
:103A700038461C99DDE91E2301F05DF997F8DB005B
:103A8000CDF86890002800F08780DDE91420D7F891
:103A9000CC10B1F1FF3F42EA0040159036DD1B9A91
:103AA00020F07F408E181899DDF87CA01A9D40EA1E
:103AB0000168DDE91C9B00BF3AA82946324619F08F
:103AC000DFF907F12C030FCB17F0BAFB411938A827
:103AD000324619F0D5F9DDE93A01579CCDE90040AD
:103AE00002A8DDE9382380E80E0148461E995246B7
:103AF000569BCDE9068B25F02FFFD7F8E4001B99E4
:103B0000361A8E42D8DAD7F8CC1001E0D7F8E400A4
:103B1000DDF86CB007F12C0359440E180FCB17F0E9
:103B200077FB5844DDF8689086421E9DDDE9568A91
:103B300032DA1598189920F07F4040EA016400BFFE
:103B400036A84946324619F09BF907F12C030FCBF2
:103B500017F076FB00EB090134A8324619F090F912
:103B6000DDE93601CDE900A002A8DDE934231EC05D
:103B70001D9807901C9829461F9A4346069425F0E5
:103B8000EBFE07F12C03D7F8E40006440FCB17F047
:103B90003FFB58448642D3DB97F8DF00002800F053
:103BA0008680DDE91620D7F8C810B1F1FF3F42EA60
:103BB000004438DD01EB0906199924F07F40189480
:103BC00040EA0164DDE91D9BDDE91BA832A831460E
:103BD000524619F055F907F12C030FCB17F018FBDB
:103BE00000EB0A0230A8314619F04AF9DDE932014A
:103BF000579DCDE9005002A8DDE930231EC04046A4
:103C000059461F9A569BCDE9064925F0A5FED7F8DF
:103C1000E0001A99361A8E42D8DAD7F8C810DDF8C3
:103C20006890189C01E0D7F8E00007F12C034944A4
:103C30000E180FCB17F004FB4844DDF8588186427C
:103C4000DDF86CB0DDF87CA031DA199924F07F4002
:103C500040EA01642EA831465A4619F011F907F1DD
:103C60002C030FCB17F0D4FA00EB0B022CA8314633
:103C700019F006F9DDE92E01579DCDE9005002A8A3
:103C8000DDE92C231EC01D9807901C9852461E99F2
:103C90004346069425F060FE07F12C03D7F8E000B8
:103CA00006440FCB17F0CCFA48448642D2DB386E7C
:103CB000DDF870B0002800F07681B6EE000A0069E9
:103CC000002869EE009A00F01A81D7F8C81049441C
:103CD00001EE101AF8EEC1AA97ED341A97ED352AC5
:103CE000B8EEC11AD7F8CC101B9D294490ED053AC7
:103CF00005EE101A90ED064A43EE01AAF8EEC5BA99
:103D0000B8EEC22A0669002E44EE02BA00F0FB802B
:103D1000DDE9111068EE00CAB7EE008A41EA004002
:103D2000CA46DDE90F2120F07F4042EA01410E9AA8
:103D300021F07F4141EA0269139940EA016019903C
:103D4000D7F8C800F0EE6AEA5044F0EE6BDA00EE05
:103D5000100AF8EEC0AA97ED340A97ED351AB8EEBE
:103D6000C00AD7F8CC0096ED052A284496ED063A0D
:103D700004EE100A42EE00AAF8EEC4BAB8EEC11A78
:103D80003AEEEE9A43EE01BA3BEEEDAA2AEE0A0AAB
:103D900009EE090A18F0ADFFB5EE400AF1EE10FA8F
:103DA00003D089EE009A8AEE00AA7C6E002C4DD0DA
:103DB0002CEE8A0A00212CEE891A0022D4E9083060
:103DC000009028A83EEEC09A3EEE80AA3AEE80BA55
:103DD0003AEEC0CA3DEE81DA3DEEC1EA3BEEC1FAF1
:103DE0007BEE818A19F050F828AB1D9DCDE908992A
:103DF0000FCBCDF82890B0EE490A0B9501250C9514
:103E0000579D0095F0EE4D0A01940024CDE9024043
:103E100004A8B0EE481AF0EE4A1AB0EE4E2AF0EEC0
:103E2000482AB0EE4B3AF0EE4F3AB0EE484AF0EE88
:103E30004C4AB0EE685AF0EE485A1B9D80E80E02DC
:103E400058464346DDE91E1226F06EF897ED310A1A
:103E5000B5EE400AF1EE10FA4CDDBC6E002C49D0F4
:103E6000D7F8E8800021D4E908300022009024A887
:103E70003EEEE99A3DEEE9AA39EEAEBA39EEADCAA8
:103E800019F002F8B0EE490AF0EE4A0AB0EE481A0C
:103E9000F0EE4B1AB0EE4A2AF0EE482AB0EE4B3A5A
:103EA000F0EE4C3AB0EE484AF0EE494AB0EE4C5AC9
:103EB000F0EE485A1998DDF870B0CDE908000A9084
:103EC0001D9D0B9501250C95579D00951B9DCDE9DA
:103ED0000148DDF85881DDE924C1DDE92623CDE97B
:103EE00003C1CDE9052307905846DDE91E1243467C
:103EF00026F01AF83669002E7FF422AF03E0DFEDDA
:103F00002DBAF0EE6BAA97ED310ADDF87C90B5EE94
:103F1000400AF1EE10FA46DDBC6E002C43D0D4E925
:103F2000083620A8002100223AEEE98A3BEEE99A01
:103F3000C24639EEAAAAD7F8E88039EEABBA0096A5
:103F400018F0A2FFB7EE001A20ABD7F8C0701D9E84
:103F50000FCBCDE908770A97B0EE480A0B960126F9
:103F60000C96579ECDE90064CDE9028005A8F0EEDD
:103F7000490AF0EE4A1AB0EE492AF0EE412AB0EEB4
:103F80004A3AF0EE4B3AB0EE414AF0EE484AB0EE13
:103F90004B5AF0EE415A04918CC058461E994A463D
:103FA000534625F0C1FF3CB0BDEC108B01B0BDE81D
:103FB000F08F00BF0000000070B586B015460E46B9
:103FC0000446D0E93223084629460BF0BDF978B102
:103FD000C4E9326504F12C0602A84ECE009617F013
:103FE0001BF902AB0598009020460ECB01F060FD56
:103FF00006B070BD10B586B00446016601F07DF8CC
:1040000004F12C0C02A89CE80E10CDF800C017F0AB
:1040100003F902AB0598009020460ECB01F048FD55
:1040200006B010BDB0B586B00D460446D0F8C0103D
:1040300028460BF085F978B1C4F8C05004F12C057E
:1040400002A82ECD009517F0E7F802AB0598009076
:1040500020460ECB01F02CFD06B0B0BD10B586B0E9
:10406000B7EE001A00F12C0C0446B4EE401A9FED96
:104070000E1AF1EE10FA31FE000AB3EE091A80FEB4
:10408000410A80ED310A02A89CE80E10CDF800C06C
:1040900017F0C2F802AB0598009020460ECB01F055
:1040A00007FD06B010BD00BF0000000070B586B06F
:1040B0000D460A260A290446D8BF35460A2AC8BF33
:1040C0001646D0E93823284631460BF03DF978B141
:1040D000C4E9385604F12C0602A84ECE009617F01B
:1040E0009BF802AB0598009020460ECB01F0E0FC57
:1040F00006B070BDB0B586B00D460446D0F8B81015
:1041000028460BF01DF978B1C4F8B85004F12C051D
:1041100002A82ECD009517F07FF802AB059800900D
:1041200020460ECB01F0C4FC06B0B0BD10B586B081
:10413000B6EE001A00F12C0C044680FE010AB2EE25
:10414000041A80FE410A80ED2F0A02A89CE80E1096
:10415000CDF800C017F060F802AB0598009020463B
:104160000ECB01F0A5FC06B010BD70B586B01546AB
:104170000E460029044608BF0126002A08BF012573
:10418000D0E93423304629460BF0DEF878B1C4E993
:10419000346504F12C0602A84ECE009617F03CF8C8
:1041A00002AB0598009020460ECB01F081FC06B0D2
:1041B00070BD10B546F23C610446C0F2250140F8DE
:1041C0006C1B2EF085FD2046BDE8104001F054BC6C
:1041D00070B582B0044601F056FC04F16C0546F25D
:1041E0005046002228462146C0F22506E6602EF001
:1041F00076FD2660002100224FF4B473F020009079
:10420000204603F02DFE3F21284606F0FAFB002150
:1042100000224FF4B9734FF487700090284603F0E2
:104220001FFE4FF07F4128462EF028FD00214FF061
:10423000FF30C4F240010022C4E92E0140F60C61B7
:10424000C4F8C0000A20C4F8D000CFF66E71C4E9EB
:104250003501C4F8DC105020C4F8E0003220C4F866
:10426000E4002046294600F00FFA46F6F0554EF2DB
:104270009470C0F22505C0F22400294618F0F8F821
:1042800060664EF28870C0F22400294618F0F0F8FB
:10429000A06602B070BD10B5044601F01FFC04F129
:1042A0006C00BDE810402EF02BBD000000000000A7
:1042B0002DE9F04F81B040F6F02940F6EC2AC2F229
:1042C000000940F230150446D9F800604FF00008AC
:1042D000C2F2000AC2F20005DAF800102A6803E010
:1042E00078B1C36806683BB1002C3046F8D140B1C4
:1042F0009142F6DC05E000BF06F0AEFD08F10108D2
:10430000EAE7002614B905E001361CB1022E08D9EF
:104310003CE000BF022E39D8DAF800002968884254
:1043200034DDD9F800B000BF5F460CB13FB9EBE710
:10433000002FE9D0DAF8000029688842E4DD7869C6
:10434000D7F800B00028EFD0B86910B9F869002894
:10435000EAD0B86A0128E7DBF8680128E4D1B86838
:104360000128E1D1384631460AF04EFE0028DBD064
:10437000D7E9020108F1010801380139C7E9020152
:1043800000207861384606F067FDCDE7404601B071
:10439000BDE8F08F2DE9F04F85B004460F9F1D4614
:1043A0001646012084F84400216402A811461A46EA
:1043B0003B46DDF84C80DDE911B9DDF840A0CDF8D1
:1043C00000A018F0B9FC0298A0630398E06302A86B
:1043D00031462A463B46CDF800A018F0ADFC84F8E3
:1043E00045B00E98C4E90698C4E90898A062002078
:1043F000E0620298206303986063204605B0BDE840
:10440000F08F2DE9F04F85B004460DF1380B129F67
:10441000012084F8440002A8216411461A463B4654
:10442000DDF85880DDF84CA0DDF85090CDF800A004
:104430009BE8600818F080FC0298A0630398E06392
:1044400002A8294632463B46CDF800A018F074FC7D
:10445000C4F818801798C4E9070915986062119884
:10446000C4E90A0B0298206303986063204605B0F4
:10447000BDE8F08F2DE9F04F85B00446129F002073
:10448000DDF85CA084F8440002A8216411461A46B5
:104490003B46DDE9148BDDE90E56DDF84C90CDF896
:1044A000009018F049FC0298A0630398E06302A80A
:1044B000294632463B46CDF8009018F03DFC84F882
:1044C00045801898C4F818A0C4E9070B16986062D4
:1044D0001198A0621098E0620298206303986063CC
:1044E000204605B0BDE8F08F47F2C011C0F22501AB
:1044F000016031F089B810B5044631F089F846F210
:104500000060C0F22500E060206016F074FF46F203
:10451000D441C0F22501C4E90310216010BD31F07F
:104520007FB847F2C011C0F22501016031F06CB8CC
:1045300010B5044631F06CF846F20060C0F2250078
:10454000E060206016F057FF46F21051C0F22501DE
:10455000C4E90310216010BD31F062B847F2C01108
:10456000C0F22501016031F04FB810B5044631F0BA
:104570004FF846F24C50C0F22500E060206010BDBC
:1045800031F04EB847F2C011C0F22501016031F0A0
:104590003BB810B5044631F03BF846F28850C0F203
:1045A0002500E060206010BD31F03AB82DE9F04FF1
:1045B00085B00DF13808149F0446816402A81146A5
:1045C0001A463B46DDF86090DDF854B0DDF858A09F
:1045D000CDF800B098E8600118F0AEFB02982064B6
:1045E0000398606402A8294632463B46CDF800B0E5
:1045F00018F0A2FB0298A0630398E063C4F8189037
:104600001998C4E9070A179860621398A062129873
:10461000C4E90B0811986063204605B0BDE8F08F2F
:1046200047F2C011C0F22501016030F0EDBF10B5B6
:10463000044630F0EDFF46F20060C0F22500E06075
:10464000206016F0D8FE46F2C451C0F22501C4E93C
:104650000310216010BD30F0E3BF47F2C011C0F27B
:104660002501016030F0D0BF10B5044630F0D0FF16
:1046700046F20060C0F22500E060206016F0BBFE4C
:10468000206110BD30F0CCBF70B58AB041B1064694
:1046900088690D4678B141F6EC60C0F2250003E070
:1046A00041F6E460C0F2250017F0DAFF0AB0BDE879
:1046B00070401FF0FDBDB2F1FF3F686A18DD326C3B
:1046C00000211AB1536A8342C8BF114671B30A462A
:1046D000496911B14B6A8342F8DC696155616869C7
:1046E0002A610028AE610CBF06F13C00103027E0C3
:1046F000316C0029E3D0D1F824C000238445B8BF31
:104700000021A8BF012300296FD01A44B2F1FF3F56
:104710006BDC013A4B69002BD8D05C6A8442D5DB54
:104720000132194612F1020FF4DDCFE73046AE61D7
:1047300050F8401F696101B10D61F16B01B9F5637A
:10474000056095F82000C0070DD028682946426D05
:1047500006A89047306807AC06991CCCD0F87CC0FE
:1047600030460094E047B06D58B91421286AC0F271
:1047700001010840142804D130682946026E3046F1
:104780009047286A40F2014100EA01028A4214D1AE
:1047900040F400602862306A46F2352240F48040DE
:1047A0003062C0F2200204A8314618F081FBDDE936
:1047B0000401324619F0A8F8286A810513D540F49F
:1047C00000602862306A46F2352240F48040306250
:1047D000C0F2200202A8314618F06AFBDDE90201AE
:1047E000324619F091F80AB070BD8445BFF66EAF3D
:1047F00065E700002DE9F041066C80460D461EB3CA
:1048000046F23C641746C0F2250400BF27B1306A67
:1048100039461FF0B9FA88B1304621460AF014FD36
:1048200030B101683A460B6F2946984707E000BF50
:1048300030682946426C3046904700E0002010B9AD
:104840007669002EE2D130B9D8F800002946426CD2
:104850004046904708B1BDE8F08140462946BDE892
:10486000F04101F0E3B970B582B00446056A06F084
:1048700029F8216AA06D4D4005F0400650B14EB1B7
:1048800002684906936D02D40021402201E04021D4
:1048900000229847BEB1E06CA8B194F820104906F8
:1048A00001D400690AE00069016A01F014011429C9
:1048B00004D1016800228B6D402103E00168402291
:1048C0008B6D0021984785B1206A46F2352240F46D
:1048D00000402062C0F220026846214618F0E8FA43
:1048E000DDE90001224619F00FF802B070BD0000AA
:1048F0002DE9F04FA1B00446006D1D4616460F4647
:10490000DDF8A880D4F8409018B1416919B10120B0
:1049100005E0002003E0C069002818BF012004F171
:104920002C0306900FCBCDE90080CDE902121DA823
:104930000493394632462B4617F02EFB1DAB0FCBA6
:1049400017F0A6FB10B100200890D7E0D4E90B01C6
:10495000CDE9008019A80291394632462B4618F05D
:10496000F3F9B9F1000FEED02D9E00254FF0000AAB
:104970004FF0000B4FF00008002719980C901A9880
:104980000B901B980A901C9809900020CDE90740D5
:10499000D9F8200065BB10F4806129D04D4600BFD6
:1049A0006D69EDB195F821108907F9D52868294678
:1049B000426D15A8904715AB099F0FCBCDE900704C
:1049C00002A80EC019A80C99DDE90A3217F0E4FA22
:1049D000DDE919ABDDE91B87D9F8200008E000BF4D
:1049E00000274FF000084FF0000B4FF0000A0025A1
:1049F0001822B5EB0901C0F2060202EA000201BF6B
:104A00000F4688468B468A4608BF0D46182A37D17E
:104A1000C00305D5069898BBE06C006948452FD1C6
:104A2000D9F800004946426D19A8904799F821002D
:104A3000B9EB060418BF3446DDE919124007DDE979
:104A40001B3020D400900C9801900B9802900A988B
:104A50000390099804900DA817F09EFA0DAB0FCBA8
:104A600017F016FBB14518BF002818D1D9F800007F
:104A70000C99DDE90A32866C099800901AE000BFB3
:104A8000D9F8149036E08DE8010C11A8CDE9038720
:104A900017F082FA11AB0FCB17F0FAFA18B1D9F868
:104AA00014902D9E20E0D9F8000051465A46434606
:104AB000866C00972B9801902C98CDE902042E98D3
:104AC00004904846B047D9F814902D9E60B10899DB
:104AD000079C0029416909D0002908D4089A526925
:104AE0009142B8BF089002E0079C03E008900029BB
:104AF00008BF8946B9F1000F7FF44AAF089821B08A
:104B0000BDE8F08F2DE9F04F8DB0002900F0B9809D
:104B10009B46034653F84C8FB8F1000F00F0B1806C
:104B20000C90D8F81000DDE919CEDDE917541B9F71
:104B3000169E0B968842D8F814A04FF000060BD0B2
:104B4000BAF1000F44D0DAF81000C146D0468842CE
:104B5000DAF814A0F4D101E04FF00009CDE90574B2
:104B6000CDE907CECDE90952B9F1000F40F240027C
:104B700018BF09F11403C0F20102C3F800A0C8F87D
:104B8000146001688B6D00219847B9F1000F0C9CEF
:104B900006D1BAF1000F1CBF206A10F0400027D1E7
:104BA000BAF1000FD8F818501DD0D8F82410DAF850
:104BB0001C00002918BF08460B99002918BF084699
:104BC000B9F1000F0A9B20D0DAF8202001211EE065
:104BD00041F67C60C0F2250017F042FD0DB0BDE843
:104BE000F04F1FF065BB0021002000220A9B0EE061
:104BF000DAF81000016A01F014011429D0D101681B
:104C000000228B6D40219847CAE70021002200292D
:104C1000114618BF5946BBF1000F08BF1146002BC3
:104C200018BF1D4629B10846DAF8106006F04CFCA2
:104C300004E048B3DAF8106006F04CFC02464EF689
:104C40002C20C0F224003146D0E90030CDE9000329
:104C5000029005980390204600F0D1F82846D8F835
:104C6000106006F02EFC024606980090079801900E
:104C7000089802900120039020463146099B00F0DD
:104C8000BEF80DB0BDE8F08F2846D8F8106006F0E9
:104C900018FC024606980090079801900898029028
:104CA0000598E8E72DE9F0418846846D46F23C61BD
:104CB0000546C0F2250120460AF0C6FA296D0646CF
:104CC00019B1486918B1012005E0002003E0C86966
:104CD000002818BF01204FF000072CB1216A11F401
:104CE000E02114BF3E46274600284FF0000006D1C1
:104CF000E96C21B108690168CA6E4146904726B146
:104D000018B93068C26E304604E02FB120B9386857
:104D1000426C38464146904728B928684146426C63
:104D20002846904708B1BDE8F08128464146BDE8D5
:104D3000F04100F07BBF2DE9F04F95B00746229877
:104D40000130239DFE6D1C468A4606FB00F0164688
:104D50001DB1396AC1F3400801E04FF000080512A7
:104D6000B86C219ADDF880B0DDF8789068B3EBB2CA
:104D7000FF20FF21FF2218F00FF80546B86C2BF03A
:104D800082FC07F12C03D7F84890B86B219F0ECB1B
:104D9000CDE9000B0FA8029717F0E6FF0FAB002735
:104DA000CDE908750FCBCDE90A55CDE90C581F9D0B
:104DB000CDE90059CDE9027004A88EC050463146B5
:104DC00022461E9B24F0D8FC16E0D7E90B3113A82D
:104DD0000091594617F0B0FFDDE91301CDF80090BE
:104DE0001F9ACDE9012003A83246234680E822011C
:104DF0003846514600F074FE15B0BDE8F08F2DE93D
:104E0000F04F81B069B1144672B10546206A18B9F5
:104E1000E06908B9206990B141F69C60C0F22500B4
:104E200006E001B0BDE8F08F41F68C60C0F22500CD
:104E300017F016FC01B0BDE8F04F1FF039BA8869D1
:104E40000E461F46DDF83480DDF82890DDE90BBA08
:104E500030B1A84204D041F6B460C0F22500E7E7C3
:104E6000286D38B946F61C300021C0F2250017F035
:104E70009BFF2865C4E909BAC4E90B79716DE56146
:104E8000266211B1086906F0C6F9306AB8F1000F60
:104E9000746540F40030306213D0286D806980B1B1
:104EA000016911B1496981420BD046F68041C0F2D7
:104EB00025010AF0C9F9214601B0BDE8F04F06F01E
:104EC00020B946F680400021C0F2250017F06CFFA3
:104ED0002146064606F015F9286D0022314601B03C
:104EE000BDE8F04F05F07DBB2DE9F04381B000290E
:104EF0004FD091468A6982424BD10C694D69204658
:104F000044EA05012F46002C18BF0120002D18BFD0
:104F1000012700293DD04FF4803121EA090800BF64
:104F2000C6070FD0B9F1000F04D0206A49461EF021
:104F30002BFF38B1B8F1000F2CD0206A41461EF08B
:104F400023FF38B3FF070FD0B9F1000F04D0286A50
:104F500049461EF019FF38B1B8F1000F1ED0286A7B
:104F600041461EF011FFC8B116B1246901E000BF2F
:104F700000240FB16D6900E0002544EA05012046D8
:104F80002F46002C18BF0120002D18BF0127002933
:104F9000C6D10024204601B0BDE8F0832C46F9E7D5
:104FA0002DE9F04F91B0002800F0A48080461D4606
:104FB00093460C46DDF86890074605902046594612
:104FC0002A464B4617F064F8002840F09380474586
:104FD000D7F848A003D0B869002800F08180BAF162
:104FE000000F54D040F62420D046C2F20000CDE994
:104FF0000754007858F834CFD8F80440D8E902565E
:10500000CDF8189050B107F12C03B86BD946E346A0
:105010000ECB00900DA816F0FFF80EE00096089851
:10502000CDE9010B07986146CDE903090DA8224699
:105030002B46D946E3461FF0BFFC5846CB46DDF869
:10504000189033460D9EC8F800600E9EC8F80460A4
:105050000F9EC8F808602A462146109EC8F80C60CA
:10506000DDF81480DAE90DC4DAE90F56CDE900C4A1
:10507000CDE902560AF070F9DDE9075438B1002194
:10508000384618F06DF80021504618F069F897F886
:105090002000C0072ED0D7E90B01CDE90090029186
:1050A00009A821465A462B4617F05EFE09AB0C981C
:1050B000D7E90B650ECBD7E90D4CCDE900060DA85D
:1050C000CDE90254CDF810C016F066FFBF690D9C03
:1050D000DDF838B0002FDDE90F597FF46FAF09E03C
:1050E000386821465A462B46D0F87CC03846CDF861
:1050F0000090E04711B0BDE8F08F10B582B00446D3
:10510000006A46F2352240F400402062C0F22002DC
:105110006846214617F0CCFEDDE90001224618F072
:10512000F3FB02B010BD0000F0B583B00D460029BE
:105130001C46114607460DD001AE00BFD5E90B3025
:1051400000903046224617F0EFFDAD69002DDDE9F5
:105150000114F3D1C7E9001403B0F0BD2DE9F04FFD
:105160008BB004469B4604F1300316460F46DDF82B
:105170005080C06A0ECB8DE80F00384631465A4643
:1051800043460AF0E9F8002873D004F12C0507A87B
:105190002ECD009516F04CF807A8394632465B46EE
:1051A000DDE9079ACDF8008016F042F8DDE90758EE
:1051B000484651462A4643460AF0C6F8000604907F
:1051C0003CD0A06C58B1294642462BF057FA00213A
:1051D000204617F0C5FFA06C002117F0C1FF1498FE
:1051E00000902046394632465B4602F0BFFDB9F1D9
:1051F000010FA8BFBAF1010F28DB07A80021002288
:105200004B46CDF800A04FF0000817F045FEE56BC7
:10521000E5B1E86980B9A86A14280DD095F8210095
:10522000400709D4286808AF07998CCF866B2846B9
:10523000CDE90078B04700BF2D69E9E714980090E8
:105240002046394632465B4602F090FD049880B114
:10525000206A46F2352240F4A0402062C0F22002CB
:1052600005A8214617F024FEDDE90501224618F0C5
:105270004BFB0BB0BDE8F08FB0B586B00446806C38
:105280000246002818BF01228A4248D021B346F6C0
:10529000AC500021C0F2250017F086FD04F12C0C63
:1052A000A064054604A89CE80E10CDF800C015F0D7
:1052B000BFFFDDE9041228462BF0E0F946F2D112D7
:1052C00002A8C0F220022146A56C17F0F1FD029859
:1052D000E862039828630EE04EF62C210025C0F208
:1052E00024010A68C26249680163A06C002100229F
:1052F0002BF0C4F9A564A06968B194F82010C9071F
:1053000009D0056804F1300CE16A9CE80C10ED6FDF
:10531000CDF800C0A8470021204617F021FF06B0B5
:10532000B0BD0268936D11B1102100221847002111
:1053300010221847B0B5054661B18869A8420BD064
:1053400041F64C60C0F2250017F08AF9BDE8B04084
:105350001EF0AEBF002408E0086A002400F014022A
:10536000142A02D1C00358BF0C46A86D844211D044
:1053700020B1016860228B6D00219847002CAC653C
:1053800008BFB0BD95F82000216840068B6D02D49F
:10539000202101E0B0BD602100222046BDE8B040E0
:1053A000184780B582B0FF29A8BFFF21C26D21EA4E
:1053B000E17191420AD0D0F818C0C165BCF1000F6C
:1053C0001CBF90F820105FEAC17101D102B080BD0E
:1053D000DCF800E0C16AD0E90C23806BDEF87CE0E9
:1053E00000906046F047F1E70268936D11B101212A
:1053F000002218470021012218472DE9F04F93B0F1
:10540000002900F0DE800DF17C0E0746C06C8B4653
:10541000DDE922C5249C9EE802441E9EDDE91C892C
:1054200010B10069584535D09BF82200C00726D13D
:105430000AA80F93CDE9112180E8304046F2885048
:105440000021C0F22500CDE90DCA4FF0000A17F087
:10545000ABFCF96C1097074669B3129BD1F820A0FA
:105460001846002B344608BF304656EA0A0208BFE9
:105470000446BAF1000F08BF034612931CE041F640
:105480006460C0F2250017F0EBF813B0BDE8F04FF0
:105490001EF00EBFCDE90854CDE900890020CDE90A
:1054A000020604A880E8024438465946CDF81CC0DC
:1054B00000F0A5F985E03446002C08BF54460029C9
:1054C00008BF5446119D55B94EF61C2046F6CC41F6
:1054D000C0F22400C0F2250115F06EFC05460F98BD
:1054E000002808BF2846B9F1000F08BFC146B8F12F
:1054F000000F08BFC846C7E90609109EC7F82080FC
:10550000B06D58451298786204D130680021026E5F
:1055100030469047F06C28B10069402201688B6DDD
:105520000021984796F8200040060BD5DBF82000B4
:1055300000F01400142805D1DBF800004021C0F26F
:10554000010103E0DBF800004FF48031836D00229D
:1055500058469847F16CC7F810B07961F764FCB110
:1055600020460F6905F0B0FF02464EF62C20C0F22F
:1055700024003946D0E90030CDE9000302900A98B2
:1055800003903046FFF73BFC284605F0A0FF02469B
:105590000C9800900D9801900B98029001200AE061
:1055A000284605F094FF02460C9800900D98019053
:1055B0000B9802900A980390304659460E9BFFF7CD
:1055C0001EFC13B0BDE8F08FB0B58AB049B10446F7
:1055D00088690D46A0420FD041F6CC60C0F225008C
:1055E00003E041F6D460C0F2250017F039F80AB0A4
:1055F000BDE8B0401EF05CBE286A40F2014100EAFE
:1056000001028A4219D16969B9B1EA69AAB1086A85
:1056100046F2352240F400600862206AC0F220029F
:1056200040F48040206208A8214617F041FCDDE9E3
:105630000801224618F068F9286A800516D56869BD
:1056400018B1016A41F400610162206A46F2352214
:1056500040F480402062C0F2200206A8214617F0E4
:1056600027FCDDE90601224618F04EF9A06DA8429C
:105670004FF00000E86109D1142220462946FFF7C7
:1056800033FC226801462046126E9047686908B1D3
:1056900029690161296901B14861E06BA84208BF2D
:1056A000E163206CA84201D16869206495F820006C
:1056B0000021C5E90411C007A9610DD02868294659
:1056C000426D02A89047206803AD02992CCDD0F816
:1056D0007CC020460095E0470AB0B0BDF0B589B067
:1056E00049B1044688690D46A0420FD041F6CC600E
:1056F000C0F2250003E041F6BC60C0F2250016F0C0
:10570000AFFF09B0BDE8F0401EF0D2BD2869002807
:1057100073D0264656F8407F002F6ED0686A00BFCF
:10572000796A814203DD7F69002FF9D165E0AF42DC
:1057300063D03869A84260D0286A40F2014100EA8B
:1057400001028A421DD1696931B1EA6922B1086A50
:1057500040F400600862286A40F400602862206A11
:1057600046F2352240F480402062C0F2200207A8B1
:10577000214617F09DFBDDE90701224618F0C4F829
:10578000286A800516D5686918B1016A41F400617C
:105790000162206A46F2352240F480402062C0F265
:1057A000200205A8214617F083FBDDE9050122460A
:1057B00018F0AAF86869296910B10161296900E047
:1057C000E1633A692A613D612A69002A18BF02F142
:1057D000140648616F61356095F82000C0070CD051
:1057E00028682946426D01A89047206802AF0199B8
:1057F0008CCFC66F20460097B04709B0F0BD2DE9A9
:10580000F04F97B0C46C299DDDE927EADDE92586D4
:10581000DDE9209BDCB3139391F82270DDE9233C92
:105820001193FF07229F129767690FD03B462769A4
:105830008F421F460AD041F66460C0F2250016F080
:105840000FFF17B0BDE8F04F1EF032BD14910AA94A
:10585000169281E86040CDE90FC046F288500021E1
:10586000C0F225000026159417F09EFADDF854C00A
:105870000346DCF81810CDE90DA8AFB1DCF8240020
:10588000FA6900283E6A18BF024609920EE00895A0
:105890000025CDE9009BCDE90255CDE90486CDE98F
:1058A00006EAFFF7AAFDA8E000200990DDE9115201
:1058B000BA46002F37461698149C18BF2F46002D65
:1058C00008BF3746002A18BF1146129168B94EF634
:1058D0001C2046F6CC41C0F22400C0F225011E4631
:1058E00015F06AFADDE9144C334613991690002935
:1058F00008BF0146BBF1000F08BFCB46B9F1000F4E
:1059000008BFD946C3F820909946C3E9061B109EEC
:105910000F985862F06CB16DA1421C6142695A61E6
:105920004FF000024261F36406D130680021026E3C
:1059300030469047DDF854C0DCF8100040F24008D3
:10594000C0F20108016842468B6D0021984796F825
:1059500020004006149809D5016A01F014011429A9
:1059600004D1016800228B6D414604E001680022E9
:105970008B6D4FF4803198472FB13846DAF81040DC
:1059800005F0A2FD05E00998D0B3DAF8104005F063
:10599000A1FD02464EF62C20C0F2240037462146D7
:1059A000D0E90065CDE90056029533460A98039088
:1059B0003846FFF724FA15980469129805F081FD1E
:1059C0000246384621463346CDE900560295012568
:1059D0000395FFF714FA1698D9F8104005F077FDF3
:1059E00002460B98009021460C9801900D98CDE945
:1059F000020538460E9BFFF702FA17B0BDE8F08F9C
:105A0000DDF848A0BAF1000FDDE90D7521D0159839
:105A10000469504605F055FD02464EF62C20C0F2B2
:105A200024002146D0E90030CDE9000302900A9815
:105A300003903046FFF7E3F91698D9F8104005F0C7
:105A400046FD02460B9800900C98CDE90107012015
:105A50000BE01698D9F8104005F039FD02460B9876
:105A600000900C98CDE901070A9803903046214632
:105A70002B46C0E77047704747F2C011C0F22501BE
:105A800001602FF0C1BD10B504462FF0C1FD1420F8
:105A9000A06246F23C60C0F22500E06020601F205A
:105AA0002062FF20E0652046BDE81040FFF725BBDF
:105AB00080B582B0D0F800C0DDF810E0DCF87CC022
:105AC000CDF800E0E04702B080BD0268526E10479A
:105AD0000268126E10470268926E10472FF0A0BD48
